{
  "transactions": [
    {
      "hash": "0x6240533d13646bc91b52552f85fc0fd3bfe8c3ffeaa3934c1fb0ebe0c51f3bf6",
      "transactionType": "CREATE",
      "contractName": "MockERC20",
      "contractAddress": "0xea1846c7acd8a1178f86a3d4ab3bf654daa2c275",
      "function": null,
      "arguments": [
        "Mock AxCNH",
        "mAxCNH"
      ],
      "transaction": {
        "from": "0x09b081e91f84b2c139b94f784a542181852710e0",
        "gas": "0x26b028",
        "value": "0x0",
        "input": "0x6080604052600c805460ff199081166001908117909255601f805482169092179091556022805490911660121790553480156200003a575f80fd5b50604051620016bc380380620016bc8339810160408190526200005d9162000144565b60206200006b838262000234565b5060216200007a828262000234565b50505062000300565b634e487b7160e01b5f52604160045260245ffd5b5f82601f830112620000a7575f80fd5b81516001600160401b0380821115620000c457620000c462000083565b604051601f8301601f19908116603f01168101908282118183101715620000ef57620000ef62000083565b81604052838152602092508660208588010111156200010c575f80fd5b5f91505b838210156200012f578582018301518183018401529082019062000110565b5f602085830101528094505050505092915050565b5f806040838503121562000156575f80fd5b82516001600160401b03808211156200016d575f80fd5b6200017b8683870162000097565b9350602085015191508082111562000191575f80fd5b50620001a08582860162000097565b9150509250929050565b600181811c90821680620001bf57607f821691505b602082108103620001de57634e487b7160e01b5f52602260045260245ffd5b50919050565b601f8211156200022f57805f5260205f20601f840160051c810160208510156200020b5750805b601f840160051c820191505b818110156200022c575f815560010162000217565b50505b505050565b81516001600160401b0381111562000250576200025062000083565b6200026881620002618454620001aa565b84620001e4565b602080601f8311600181146200029e575f8415620002865750858301515b5f19600386901b1c1916600185901b178555620002f8565b5f85815260208120601f198616915b82811015620002ce57888601518255948401946001909101908401620002ad565b5085821015620002ec57878501515f19600388901b60f8161c191681555b505060018460011b0185555b505050505050565b6113ae806200030e5f395ff3fe608060405234801561000f575f80fd5b506004361061013d575f3560e01c806370a08231116100b4578063b0464fdc11610079578063b0464fdc14610293578063b5508aa91461029b578063ba414fa6146102a3578063dd62ed3e146102ab578063e20c9f71146102d5578063fa7626d4146102dd575f80fd5b806370a082311461022f57806385226c811461024e578063916a17c61461026357806395d89b4114610278578063a9059cbb14610280575f80fd5b80632ade3880116101055780632ade3880146101c1578063313ce567146101d65780633e5e3c23146101f55780633f7286f4146101fd57806340c10f191461020557806366d9a9a01461021a575f80fd5b806306fdde0314610141578063095ea7b31461015f57806318160ddd146101825780631ed7831c1461019957806323b872dd146101ae575b5f80fd5b6101496102ea565b6040516101569190610f6d565b60405180910390f35b61017261016d366004610fa1565b610376565b6040519015158152602001610156565b61018b60235481565b604051908152602001610156565b6101a16103e2565b6040516101569190610fc9565b6101726101bc366004611015565b610442565b6101c961060e565b604051610156919061104e565b6022546101e39060ff1681565b60405160ff9091168152602001610156565b6101a161074a565b6101a16107a8565b610218610213366004610fa1565b610806565b005b61022261088e565b604051610156919061114f565b61018b61023d3660046111d4565b60246020525f908152604090205481565b6102566109f2565b60405161015691906111ed565b61026b610abd565b604051610156919061124f565b610149610b9e565b61017261028e366004610fa1565b610bab565b61026b610c84565b610256610d65565b610172610e30565b61018b6102b93660046112be565b602560209081525f928352604080842090915290825290205481565b6101a1610ecc565b601f546101729060ff1681565b602080546102f7906112ef565b80601f0160208091040260200160405190810160405280929190818152602001828054610323906112ef565b801561036e5780601f106103455761010080835404028352916020019161036e565b820191905f5260205f20905b81548152906001019060200180831161035157829003601f168201915b505050505081565b335f8181526025602090815260408083206001600160a01b038716808552925280832085905551919290917f8c5be1e5ebec7d5bd14f71427d1e84f3dd0314c0f7b2291e5b200ac8c7c3b925906103d09086815260200190565b60405180910390a35060015b92915050565b6060601680548060200260200160405190810160405280929190818152602001828054801561043857602002820191905f5260205f20905b81546001600160a01b0316815260019091019060200180831161041a575b5050505050905090565b6001600160a01b0383165f9081526024602052604081205482111561049d5760405162461bcd60e51b815260206004820152600c60248201526b1a5b9cdd59999a58da595b9d60a21b60448201526064015b60405180910390fd5b6001600160a01b0384165f9081526025602090815260408083203384529091529020545f191461055d576001600160a01b0384165f9081526025602090815260408083203384529091529020548211156105255760405162461bcd60e51b8152602060048201526009602482015268616c6c6f77616e636560b81b6044820152606401610494565b6001600160a01b0384165f9081526025602090815260408083203384529091528120805484929061055790849061133b565b90915550505b6001600160a01b0384165f908152602460205260408120805484929061058490849061133b565b90915550506001600160a01b0383165f90815260246020526040812080548492906105b090849061134e565b92505081905550826001600160a01b0316846001600160a01b03167fddf252ad1be2c89b69c2b068fc378daa952ba7f163c4a11628f55a4df523b3ef846040516105fc91815260200190565b60405180910390a35060019392505050565b6060601e805480602002602001604051908101604052809291908181526020015f905b82821015610741575f84815260208082206040805180820182526002870290920180546001600160a01b03168352600181018054835181870281018701909452808452939591948681019491929084015b8282101561072a578382905f5260205f2001805461069f906112ef565b80601f01602080910402602001604051908101604052809291908181526020018280546106cb906112ef565b80156107165780601f106106ed57610100808354040283529160200191610716565b820191905f5260205f20905b8154815290600101906020018083116106f957829003601f168201915b505050505081526020019060010190610682565b505050508152505081526020019060010190610631565b50505050905090565b6060601880548060200260200160405190810160405280929190818152602001828054801561043857602002820191905f5260205f209081546001600160a01b0316815260019091019060200180831161041a575050505050905090565b6060601780548060200260200160405190810160405280929190818152602001828054801561043857602002820191905f5260205f209081546001600160a01b0316815260019091019060200180831161041a575050505050905090565b6001600160a01b0382165f908152602460205260408120805483929061082d90849061134e565b925050819055508060235f828254610845919061134e565b90915550506040518181526001600160a01b038316905f907fddf252ad1be2c89b69c2b068fc378daa952ba7f163c4a11628f55a4df523b3ef9060200160405180910390a35050565b6060601b805480602002602001604051908101604052809291908181526020015f905b82821015610741578382905f5260205f2090600202016040518060400160405290815f820180546108e1906112ef565b80601f016020809104026020016040519081016040528092919081815260200182805461090d906112ef565b80156109585780601f1061092f57610100808354040283529160200191610958565b820191905f5260205f20905b81548152906001019060200180831161093b57829003601f168201915b50505050508152602001600182018054806020026020016040519081016040528092919081815260200182805480156109da57602002820191905f5260205f20905f905b82829054906101000a900460e01b6001600160e01b0319168152602001906004019060208260030104928301926001038202915080841161099c5790505b505050505081525050815260200190600101906108b1565b6060601a805480602002602001604051908101604052809291908181526020015f905b82821015610741578382905f5260205f20018054610a32906112ef565b80601f0160208091040260200160405190810160405280929190818152602001828054610a5e906112ef565b8015610aa95780601f10610a8057610100808354040283529160200191610aa9565b820191905f5260205f20905b815481529060010190602001808311610a8c57829003601f168201915b505050505081526020019060010190610a15565b6060601d805480602002602001604051908101604052809291908181526020015f905b82821015610741575f8481526020908190206040805180820182526002860290920180546001600160a01b03168352600181018054835181870281018701909452808452939491938583019392830182828015610b8657602002820191905f5260205f20905f905b82829054906101000a900460e01b6001600160e01b03191681526020019060040190602082600301049283019260010382029150808411610b485790505b50505050508152505081526020019060010190610ae0565b602180546102f7906112ef565b335f90815260246020526040812054821115610bf85760405162461bcd60e51b815260206004820152600c60248201526b1a5b9cdd59999a58da595b9d60a21b6044820152606401610494565b335f9081526024602052604081208054849290610c1690849061133b565b90915550506001600160a01b0383165f9081526024602052604081208054849290610c4290849061134e565b90915550506040518281526001600160a01b0384169033907fddf252ad1be2c89b69c2b068fc378daa952ba7f163c4a11628f55a4df523b3ef906020016103d0565b6060601c805480602002602001604051908101604052809291908181526020015f905b82821015610741575f8481526020908190206040805180820182526002860290920180546001600160a01b03168352600181018054835181870281018701909452808452939491938583019392830182828015610d4d57602002820191905f5260205f20905f905b82829054906101000a900460e01b6001600160e01b03191681526020019060040190602082600301049283019260010382029150808411610d0f5790505b50505050508152505081526020019060010190610ca7565b60606019805480602002602001604051908101604052809291908181526020015f905b82821015610741578382905f5260205f20018054610da5906112ef565b80601f0160208091040260200160405190810160405280929190818152602001828054610dd1906112ef565b8015610e1c5780601f10610df357610100808354040283529160200191610e1c565b820191905f5260205f20905b815481529060010190602001808311610dff57829003601f168201915b505050505081526020019060010190610d88565b6008545f9060ff1615610e435750600190565b604051630667f9d760e41b8152737109709ecfa91a80626ff3989d68f67f5b1dd12d600482018190526519985a5b195960d21b60248301525f9163667f9d7090604401602060405180830381865afa158015610ea1573d5f803e3d5ffd5b505050506040513d601f19601f82011682018060405250810190610ec59190611361565b1415905090565b6060601580548060200260200160405190810160405280929190818152602001828054801561043857602002820191905f5260205f209081546001600160a01b0316815260019091019060200180831161041a575050505050905090565b5f81518084525f5b81811015610f4e57602081850181015186830182015201610f32565b505f602082860101526020601f19601f83011685010191505092915050565b602081525f610f7f6020830184610f2a565b9392505050565b80356001600160a01b0381168114610f9c575f80fd5b919050565b5f8060408385031215610fb2575f80fd5b610fbb83610f86565b946020939093013593505050565b602080825282518282018190525f9190848201906040850190845b818110156110095783516001600160a01b031683529284019291840191600101610fe4565b50909695505050505050565b5f805f60608486031215611027575f80fd5b61103084610f86565b925061103e60208501610f86565b9150604084013590509250925092565b602080825282518282018190525f919060409081850190600581811b87018401888601875b848110156110fc57603f198a8403018652815180516001600160a01b03168452880151888401889052805188850181905290890190606081871b8601810191908601905f5b818110156110e657605f198885030183526110d4848651610f2a565b948d01949350918c01916001016110b8565b5050509689019693505090870190600101611073565b50909998505050505050505050565b5f815180845260208085019450602084015f5b838110156111445781516001600160e01b0319168752958201959082019060010161111e565b509495945050505050565b5f60208083018184528085518083526040925060408601915060408160051b8701018488015f5b838110156111c657888303603f190185528151805187855261119a88860182610f2a565b91890151858303868b01529190506111b2818361110b565b968901969450505090860190600101611176565b509098975050505050505050565b5f602082840312156111e4575f80fd5b610f7f82610f86565b5f60208083016020845280855180835260408601915060408160051b8701019250602087015f5b8281101561124257603f19888603018452611230858351610f2a565b94509285019290850190600101611214565b5092979650505050505050565b5f60208083018184528085518083526040925060408601915060408160051b8701018488015f5b838110156111c657888303603f19018552815180516001600160a01b031684528701518784018790526112ab8785018261110b565b9588019593505090860190600101611276565b5f80604083850312156112cf575f80fd5b6112d883610f86565b91506112e660208401610f86565b90509250929050565b600181811c9082168061130357607f821691505b60208210810361132157634e487b7160e01b5f52602260045260245ffd5b50919050565b634e487b7160e01b5f52601160045260245ffd5b818103818111156103dc576103dc611327565b808201808211156103dc576103dc611327565b5f60208284031215611371575f80fd5b505191905056fea26469706673582212203a0370386c72efde49fa0c3c4fe62652d8b2d3aa901d3ec0c4f08c0040d3393264736f6c6343000818003300000000000000000000000000000000000000000000000000000000000000400000000000000000000000000000000000000000000000000000000000000080000000000000000000000000000000000000000000000000000000000000000a4d6f636b204178434e480000000000000000000000000000000000000000000000000000000000000000000000000000000000000000000000000000000000066d4178434e480000000000000000000000000000000000000000000000000000",
        "nonce": "0x3f",
        "chainId": "0x47"
      },
      "additionalContracts": [],
      "isFixedGasLimit": false
    },
    {
      "hash": "0x0d94500bf38232cb698ff7629ecdb4e5087e68fcb260035971ee4d10310373fc",
      "transactionType": "CALL",
      "contractName": null,
      "contractAddress": "0x09a1bfac7fed8754f1eb37c802eec9ed831a82f9",
      "function": "setSupportedAsset(address,bool)",
      "arguments": [
        "0xEA1846c7acD8A1178F86A3d4ab3Bf654daA2C275",
        "true"
      ],
      "transaction": {
        "from": "0x09b081e91f84b2c139b94f784a542181852710e0",
        "to": "0x09a1bfac7fed8754f1eb37c802eec9ed831a82f9",
        "gas": "0x181b8",
        "value": "0x0",
        "input": "0xef76e2ee000000000000000000000000ea1846c7acd8a1178f86a3d4ab3bf654daa2c2750000000000000000000000000000000000000000000000000000000000000001",
        "nonce": "0x40",
        "chainId": "0x47"
      },
      "additionalContracts": [],
      "isFixedGasLimit": false
    },
    {
      "hash": "0x7a2bb2cf08e30bad993d9e9099d24def324999d35ff8d4f8bd2d06f5d02b7766",
      "transactionType": "CALL",
      "contractName": "MockERC20",
      "contractAddress": "0xea1846c7acd8a1178f86a3d4ab3bf654daa2c275",
      "function": "mint(address,uint256)",
      "arguments": [
        "0x09b081e91F84B2c139B94f784A542181852710E0",
        "1000000000000000000000"
      ],
      "transaction": {
        "from": "0x09b081e91f84b2c139b94f784a542181852710e0",
        "to": "0xea1846c7acd8a1178f86a3d4ab3bf654daa2c275",
        "gas": "0x25940",
        "value": "0x0",
        "input": "0x40c10f1900000000000000000000000009b081e91f84b2c139b94f784a542181852710e000000000000000000000000000000000000000000000003635c9adc5dea00000",
        "nonce": "0x41",
        "chainId": "0x47"
      },
      "additionalContracts": [],
      "isFixedGasLimit": false
    },
    {
      "hash": "0x811c88d32b95c5e90185e5bfbd6769c6c8cc66eab1df30ff594a95f7421351fd",
      "transactionType": "CALL",
      "contractName": "MockERC20",
      "contractAddress": "0xea1846c7acd8a1178f86a3d4ab3bf654daa2c275",
      "function": "approve(address,uint256)",
      "arguments": [
        "0x2Cd74565C93BC180e29bE542047b06605e974ca0",
        "3600000000000000000"
      ],
      "transaction": {
        "from": "0x09b081e91f84b2c139b94f784a542181852710e0",
        "to": "0xea1846c7acd8a1178f86a3d4ab3bf654daa2c275",
        "gas": "0x17f48",
        "value": "0x0",
        "input": "0x095ea7b30000000000000000000000002cd74565c93bc180e29be542047b06605e974ca000000000000000000000000000000000000000000000000031f5c4ed27680000",
        "nonce": "0x42",
        "chainId": "0x47"
      },
      "additionalContracts": [],
      "isFixedGasLimit": false
    },
    {
      "hash": "0x6b2dda439e0f019ecf80b6bea6de3210d8d0a8b2afae0664e6e2f41e772d9837",
      "transactionType": "CALL",
      "contractName": null,
      "contractAddress": "0x2cd74565c93bc180e29be542047b06605e974ca0",
      "function": "createStream(address,address,uint256,uint256,bool)",
      "arguments": [
        "0x70997970C51812dc3A010C7d01b50e0d17dc79C8",
        "0xEA1846c7acD8A1178F86A3d4ab3Bf654daA2C275",
        "1000000000000000",
        "3600",
        "false"
      ],
      "transaction": {
        "from": "0x09b081e91f84b2c139b94f784a542181852710e0",
        "to": "0x2cd74565c93bc180e29be542047b06605e974ca0",
        "gas": "0xebe72",
        "value": "0x0",
        "input": "0xce2c955800000000000000000000000070997970c51812dc3a010c7d01b50e0d17dc79c8000000000000000000000000ea1846c7acd8a1178f86a3d4ab3bf654daa2c27500000000000000000000000000000000000000000000000000038d7ea4c680000000000000000000000000000000000000000000000000000000000000000e100000000000000000000000000000000000000000000000000000000000000000",
        "nonce": "0x43",
        "chainId": "0x47"
      },
      "additionalContracts": [],
      "isFixedGasLimit": false
    }
  ],
  "receipts": [
    {
      "status": "0x1",
      "cumulativeGasUsed": "0x243ea4",
      "logs": [],
      "logsBloom": "0x00000000000000000000000000000000000000000000000000000000000000000000000000000000000000000000000000000000000000000000000000000000000000000000000000000000000000000000000000000000000000000000000000000000000000000000000000000000000000000000000000000000000000000000000000000000000000000000000000000000000000000000000000000000000000000000000000000000000000000000000000000000000000000000000000000000000000000000000000000000000000000000000000000000000000000000000000000000000000000000000000000000000000000000000000000000",
      "type": "0x2",
      "transactionHash": "0x6240533d13646bc91b52552f85fc0fd3bfe8c3ffeaa3934c1fb0ebe0c51f3bf6",
      "transactionIndex": "0x0",
      "blockHash": "0x7dc59e0ee4123634a13f12a26f8ec63495202e9c9ea84173d152b2042d6dbbd6",
      "blockNumber": "0xecf8303",
      "gasUsed": "0x243ea4",
      "effectiveGasPrice": "0xa866ddc53",
      "from": "0x09b081e91f84b2c139b94f784a542181852710e0",
      "to": null,
      "contractAddress": "0xea1846c7acd8a1178f86a3d4ab3bf654daa2c275",
      "burntGasFee": "0x546384c8d61000",
      "gasFee": "0x17d7abfb5693f2c",
      "txExecErrorMsg": null
    },
    {
      "status": "0x1",
      "cumulativeGasUsed": "0x103a4",
      "logs": [],
      "logsBloom": "0x00000000000000000000000000000000000000000000000000000000000000000000000000000000000000000000000000000000000000000000000000000000000000000000000000000000000000000000000000000000000000000000000000000000000000000000000000000000000000000000000000000000000000000000000000000000000000000000000000000000000000000000000000000000000000000000000000000000000000000000000000000000000000000000000000000000000000000000000000000000000000000000000000000000000000000000000000000000000000000000000000000000000000000000000000000000",
      "type": "0x2",
      "transactionHash": "0x0d94500bf38232cb698ff7629ecdb4e5087e68fcb260035971ee4d10310373fc",
      "transactionIndex": "0x0",
      "blockHash": "0x0d3a1af337baa0136a0dc9463cea3111bf1944bb6836c98be39a3558b00e3370",
      "blockNumber": "0xecf830d",
      "gasUsed": "0x103a4",
      "effectiveGasPrice": "0xa866ddc53",
      "from": "0x09b081e91f84b2c139b94f784a542181852710e0",
      "to": "0x09a1bfac7fed8754f1eb37c802eec9ed831a82f9",
      "contractAddress": null,
      "burntGasFee": "0x2a18db7d3e800",
      "gasFee": "0xbe4cce17b62fe"
    },
    {
      "status": "0x1",
      "cumulativeGasUsed": "0x1a779",
      "logs": [
        {
          "address": "0xea1846c7acd8a1178f86a3d4ab3bf654daa2c275",
          "topics": [
            "0xddf252ad1be2c89b69c2b068fc378daa952ba7f163c4a11628f55a4df523b3ef",
            "0x0000000000000000000000000000000000000000000000000000000000000000",
            "0x00000000000000000000000009b081e91f84b2c139b94f784a542181852710e0"
          ],
          "data": "0x00000000000000000000000000000000000000000000003635c9adc5dea00000",
          "blockHash": "0x827747ffbfa1bc4d029e4d30bb880bcca16d9fb51f2b39683b2f8a6ab934dd28",
          "blockNumber": "0xecf831c",
          "blockTimestamp": "0x69d6318c",
          "transactionHash": "0x7a2bb2cf08e30bad993d9e9099d24def324999d35ff8d4f8bd2d06f5d02b7766",
          "transactionIndex": "0x0",
          "logIndex": "0x0",
          "removed": false
        }
      ],
      "logsBloom": "0x00000000000000000000000100000000000000000000000000000000000040000000000000000000000000080000000000000000000400000000000000000000000000000000020000000008000000000000000000000000000000000000000000000000020000000000000000000800000000000000000000000010000000000000000000000000000000000000000000000000000000000000000000000000000000000000000000000000000000000000000000000000000000000000000000000002000000000000000000000000000000000000000000000000000020000000000000010000000000000000000000000000000000000000000000000000",
      "type": "0x2",
      "transactionHash": "0x7a2bb2cf08e30bad993d9e9099d24def324999d35ff8d4f8bd2d06f5d02b7766",
      "transactionIndex": "0x0",
      "blockHash": "0x827747ffbfa1bc4d029e4d30bb880bcca16d9fb51f2b39683b2f8a6ab934dd28",
      "blockNumber": "0xecf831c",
      "gasUsed": "0x1a779",
      "effectiveGasPrice": "0xa866ddc53",
      "from": "0x09b081e91f84b2c139b94f784a542181852710e0",
      "to": "0xea1846c7acd8a1178f86a3d4ab3bf654daa2c275",
      "contractAddress": null,
      "burntGasFee": "0x419ebb1edc000",
      "gasFee": "0x128a2b244873d0"
    },
    {
      "status": "0x1",
      "cumulativeGasUsed": "0x1027f",
      "logs": [
        {
          "address": "0xea1846c7acd8a1178f86a3d4ab3bf654daa2c275",
          "topics": [
            "0x8c5be1e5ebec7d5bd14f71427d1e84f3dd0314c0f7b2291e5b200ac8c7c3b925",
            "0x00000000000000000000000009b081e91f84b2c139b94f784a542181852710e0",
            "0x0000000000000000000000002cd74565c93bc180e29be542047b06605e974ca0"
          ],
          "data": "0x00000000000000000000000000000000000000000000000031f5c4ed27680000",
          "blockHash": "0x9dfcee5a71b3f4f2633566cadcd8a26d7f1ed93cc3a9dc24398a3cae28ce44fb",
          "blockNumber": "0xecf8326",
          "blockTimestamp": "0x69d63195",
          "transactionHash": "0x811c88d32b95c5e90185e5bfbd6769c6c8cc66eab1df30ff594a95f7421351fd",
          "transactionIndex": "0x0",
          "logIndex": "0x0",
          "removed": false
        }
      ],
      "logsBloom": "0x00000000000000000000000100000000000000000000000000000000000040000000000000000000000000080000000000000000000400000000000000200000000000000000020000000000000000000000000000000000000000000000000000000000040000000000000000000000000000000000000000000020000000000000000000000000000000000000000000000000000000000000000000000000020000000000000000000000000000000000000000000000000000000000000000000000000000000000000000000000000000000000000000000000000000000010000000010000000000000000000000000000000000000000000000040000",
      "type": "0x2",
      "transactionHash": "0x811c88d32b95c5e90185e5bfbd6769c6c8cc66eab1df30ff594a95f7421351fd",
      "transactionIndex": "0x0",
      "blockHash": "0x9dfcee5a71b3f4f2633566cadcd8a26d7f1ed93cc3a9dc24398a3cae28ce44fb",
      "blockNumber": "0xecf8326",
      "gasUsed": "0x1027f",
      "effectiveGasPrice": "0xa866ddc53",
      "from": "0x09b081e91f84b2c139b94f784a542181852710e0",
      "to": "0xea1846c7acd8a1178f86a3d4ab3bf654daa2c275",
      "contractAddress": null,
      "burntGasFee": "0x29d4c12171800",
      "gasFee": "0xbd18f20a49b42"
    },
    {
      "status": "0x1",
      "cumulativeGasUsed": "0xbd236",
      "logs": [
        {
          "address": "0xea1846c7acd8a1178f86a3d4ab3bf654daa2c275",
          "topics": [
            "0xddf252ad1be2c89b69c2b068fc378daa952ba7f163c4a11628f55a4df523b3ef",
            "0x00000000000000000000000009b081e91f84b2c139b94f784a542181852710e0",
            "0x0000000000000000000000002cd74565c93bc180e29be542047b06605e974ca0"
          ],
          "data": "0x00000000000000000000000000000000000000000000000031f5c4ed27680000",
          "blockHash": "0xe88949070bcf2f721646eaf82c5368d655bb7a8ec476e3875809a83865c3aad1",
          "blockNumber": "0xecf8330",
          "blockTimestamp": "0x69d6319d",
          "transactionHash": "0x6b2dda439e0f019ecf80b6bea6de3210d8d0a8b2afae0664e6e2f41e772d9837",
          "transactionIndex": "0x0",
          "logIndex": "0x0",
          "removed": false
        },
        {
          "address": "0xea1846c7acd8a1178f86a3d4ab3bf654daa2c275",
          "topics": [
            "0x8c5be1e5ebec7d5bd14f71427d1e84f3dd0314c0f7b2291e5b200ac8c7c3b925",
            "0x0000000000000000000000002cd74565c93bc180e29be542047b06605e974ca0",
            "0x00000000000000000000000009a1bfac7fed8754f1eb37c802eec9ed831a82f9"
          ],
          "data": "0x00000000000000000000000000000000000000000000000031f5c4ed27680000",
          "blockHash": "0xe88949070bcf2f721646eaf82c5368d655bb7a8ec476e3875809a83865c3aad1",
          "blockNumber": "0xecf8330",
          "blockTimestamp": "0x69d6319d",
          "transactionHash": "0x6b2dda439e0f019ecf80b6bea6de3210d8d0a8b2afae0664e6e2f41e772d9837",
          "transactionIndex": "0x0",
          "logIndex": "0x1",
          "removed": false
        },
        {
          "address": "0xea1846c7acd8a1178f86a3d4ab3bf654daa2c275",
          "topics": [
            "0xddf252ad1be2c89b69c2b068fc378daa952ba7f163c4a11628f55a4df523b3ef",
            "0x0000000000000000000000002cd74565c93bc180e29be542047b06605e974ca0",
            "0x00000000000000000000000009a1bfac7fed8754f1eb37c802eec9ed831a82f9"
          ],
          "data": "0x00000000000000000000000000000000000000000000000031f5c4ed27680000",
          "blockHash": "0xe88949070bcf2f721646eaf82c5368d655bb7a8ec476e3875809a83865c3aad1",
          "blockNumber": "0xecf8330",
          "blockTimestamp": "0x69d6319d",
          "transactionHash": "0x6b2dda439e0f019ecf80b6bea6de3210d8d0a8b2afae0664e6e2f41e772d9837",
          "transactionIndex": "0x0",
          "logIndex": "0x2",
          "removed": false
        },
        {
          "address": "0x09a1bfac7fed8754f1eb37c802eec9ed831a82f9",
          "topics": [
            "0x7310c8f9e75a815c1d827635f05beebdad06978d5e41059afaa48b8e0b2fccf7",
            "0x0000000000000000000000000000000000000000000000000000000000000001",
            "0x00000000000000000000000009b081e91f84b2c139b94f784a542181852710e0",
            "0x00000000000000000000000070997970c51812dc3a010c7d01b50e0d17dc79c8"
          ],
          "data": "0x000000000000000000000000ea1846c7acd8a1178f86a3d4ab3bf654daa2c27500000000000000000000000000000000000000000000000000038d7ea4c680000000000000000000000000000000000000000000000000000000000069d6319d0000000000000000000000000000000000000000000000000000000069d63fad00000000000000000000000000000000000000000000000031f5c4ed27680000",
          "blockHash": "0xe88949070bcf2f721646eaf82c5368d655bb7a8ec476e3875809a83865c3aad1",
          "blockNumber": "0xecf8330",
          "blockTimestamp": "0x69d6319d",
          "transactionHash": "0x6b2dda439e0f019ecf80b6bea6de3210d8d0a8b2afae0664e6e2f41e772d9837",
          "transactionIndex": "0x0",
          "logIndex": "0x3",
          "removed": false
        },
        {
          "address": "0x349ccb9d138be918b1ace5849efdd5c4652c9cbb",
          "topics": [
            "0xddf252ad1be2c89b69c2b068fc378daa952ba7f163c4a11628f55a4df523b3ef",
            "0x0000000000000000000000000000000000000000000000000000000000000000",
            "0x00000000000000000000000070997970c51812dc3a010c7d01b50e0d17dc79c8",
            "0x0000000000000000000000000000000000000000000000000000000000000001"
          ],
          "data": "0x",
          "blockHash": "0xe88949070bcf2f721646eaf82c5368d655bb7a8ec476e3875809a83865c3aad1",
          "blockNumber": "0xecf8330",
          "blockTimestamp": "0x69d6319d",
          "transactionHash": "0x6b2dda439e0f019ecf80b6bea6de3210d8d0a8b2afae0664e6e2f41e772d9837",
          "transactionIndex": "0x0",
          "logIndex": "0x4",
          "removed": false
        },
        {
          "address": "0x2cd74565c93bc180e29be542047b06605e974ca0",
          "topics": [
            "0xf1ecf635feb9e294883a8d7d3cb9a3009a02746b33370aafe3d6fa7c49bd8407",
            "0x0000000000000000000000000000000000000000000000000000000000000001",
            "0x0000000000000000000000000000000000000000000000000000000000000001",
            "0x00000000000000000000000009b081e91f84b2c139b94f784a542181852710e0"
          ],
          "data": "0x00000000000000000000000070997970c51812dc3a010c7d01b50e0d17dc79c8000000000000000000000000ea1846c7acd8a1178f86a3d4ab3bf654daa2c27500000000000000000000000000000000000000000000000000038d7ea4c680000000000000000000000000000000000000000000000000000000000000000e10",
          "blockHash": "0xe88949070bcf2f721646eaf82c5368d655bb7a8ec476e3875809a83865c3aad1",
          "blockNumber": "0xecf8330",
          "blockTimestamp": "0x69d6319d",
          "transactionHash": "0x6b2dda439e0f019ecf80b6bea6de3210d8d0a8b2afae0664e6e2f41e772d9837",
          "transactionIndex": "0x0",
          "logIndex": "0x5",
          "removed": false
        }
      ],
      "logsBloom": "0x00000000000000000002000180000800000000000000000000000000000040000002000000000000000000080000000000000000000400000000000000240000000000000000120000000008000000001000000800040000000000100000000000400800060000000040000000008800000000000000000000000030000000000000000000000000400000000000100000000000000000000000000000000000020000000080000000000008000000100000000000000000000000000000001000000006001000000000000000000000000000000000000000000000000060000010000000010000000000000000000001000000000000000000000000040000",
      "type": "0x2",
      "transactionHash": "0x6b2dda439e0f019ecf80b6bea6de3210d8d0a8b2afae0664e6e2f41e772d9837",
      "transactionIndex": "0x0",
      "blockHash": "0xe88949070bcf2f721646eaf82c5368d655bb7a8ec476e3875809a83865c3aad1",
      "blockNumber": "0xecf8330",
      "gasUsed": "0xbd236",
      "effectiveGasPrice": "0xa866ddc53",
      "from": "0x09b081e91f84b2c139b94f784a542181852710e0",
      "to": "0x2cd74565c93bc180e29be542047b06605e974ca0",
      "contractAddress": null,
      "burntGasFee": "0x1b85f2478a1800",
      "gasFee": "0x7c6b36f1798f82"
    }
  ],
  "libraries": [],
  "pending": [],
  "returns": {},
  "timestamp": 1775645091006,
  "chain": 71,
  "commit": "39f8c8c"
}